:100000000C9446000C9465000C9465000C946500FB
:100010000C9465000C9465000C9465000C946500CC
:100020000C9465000C9465000C9465000C946500BC
:100030000C9465000C94D9010C9465000C94650037
:100040000C9465000C9465000C9465000C9465009C
:100050000C9465000C9465000C9465000C9465008C
:100060000C9465000C9465000C9465000C9465007C
:100070000C9465000C9465000C9465000C9465006C
:100080000C9465000C9465000C94650011241FBE4F
:10009000CFEFD0E4DEBFCDBF11E0A0E0B1E0EEE9EC
:1000A000F9E000E00BBF02C007900D92AA31B10742
:1000B000D9F721E0AAE1B1E001C01D92AC32B2074C
:1000C000E1F70E941D040C94CD040C940000CF9322
:1000D000DF93CDB7DEB781E00E948E000000DF9194
:1000E000CF910895CF93DF93CDB7DEB784E690E04C
:1000F0000E94320188E30E948E0086E00E948E00FA
:100100008FE00E948E0081E00E948E008AE090E0E5
:100110000E9432010000DF91CF910895CF93DF93C9
:100120001F92CDB7DEB789838BE290E02BE230E0FF
:10013000F90120812F7BFC01208388E290E0298156
:10014000FC0120838BE290E02BE230E0F90120817A
:100150002068FC01208300008BE290E02BE230E07D
:10016000F90120812F77FC01208382E090E00E943A
:10017000320100000F90DF91CF910895CF93DF936C
:100180001F92CDB7DEB789838BE290E02BE230E09F
:10019000F90120812064FC01208388E290E029811C
:1001A000FC0120838BE290E02BE230E0F90120811A
:1001B0002068FC01208300008BE290E02BE230E01D
:1001C000F90120812F77FC01208381E090E00E94DB
:1001D000320100000F90DF91CF910895CF93DF930C
:1001E00000D000D0CDB7DEB78A837C836B830E94BA
:1001F00067008A81898311C0898191E0980F998372
:100200000E941B018B819C819C012F5F3F4F3C838F
:100210002B83FC0180810E94BE008B819C81FC01AC
:100220008081882349F700000F900F900F900F9066
:10023000DF91CF910895CF93DF931F92CDB7DEB7B3
:1002400089838981813128F4898181580E948E00B7
:1002500004C0898181550E948E0000000F90DF91BB
:10026000CF910895CF93DF9300D000D000D0CDB7C9
:10027000DEB79E838D831A82198213C01C821B8273
:1002800006C000008B819C8101969C838B838B81AF
:100290009C8187309340ACF389819A8101969A833F
:1002A000898329813A818D819E812817390734F30A
:1002B000000026960FB6F894DEBF0FBECDBFDF91CB
:1002C000CF910895CF93DF9300D01F92CDB7DEB7C3
:1002D00089837B836A8389818A3031F48A819B8117
:1002E000BC018DE00E94620180EC90E0FC01808105
:1002F000882F90E080729927892BB1F386EC90E0EB
:100300002981FC01208380E090E00F900F900F90F6
:10031000DF91CF910895CF93DF93CDB7DEB781E81A
:1003200090E02BE0FC01208388E890E02DE730E0AE
:10033000FC01318320838FE690E022E0FC012083E2
:1003400084E890E0FC011182108280910E0190916E
:100350000F01A0911001B091110180931B019093A6
:100360001C01A0931D01B0931E018FE590E02FE5C5
:1003700030E0F90120812068FC0120830000DF913A
:10038000CF910895CF93DF93CDB7DEB781E890E0AA
:10039000FC0110820000DF91CF910895CF93DF938D
:1003A000CDB7DEB781E080931A010000DF91CF91D5
:1003B00008951F920F9200905F000F9211240090F9
:1003C0005B000F922F933F934F935F936F937F93B5
:1003D0008F939F93AF93BF93EF93FF93CF93DF934D
:1003E000CDB7DEB780911B0190911C01A0911D013A
:1003F000B0911E010197A109B10980931B0190934F
:100400001C01A0931D01B0931E0180911B019091CE
:100410001C01A0911D01B0911E01892B8A2B8B2BF1
:1004200091F40E94CE0180910E0190910F01A09154
:100430001001B091110180931B0190931C01A093B6
:100440001D01B0931E010000DF91CF91FF91EF914C
:10045000BF91AF919F918F917F916F915F914F91DC
:100460003F912F910F9000925B000F9000925F00E0
:100470000F901F901895CF93DF9300D000D0CDB789
:10048000DEB769837A838B839C8389819A81AB8170
:10049000BC8180930E0190930F01A0931001B09343
:1004A000110180910E0190910F01A0911001B09166
:1004B000110180931B0190931C01A0931D01B09327
:1004C0001E0100000F900F900F900F90DF91CF91C1
:1004D0000895CF93DF93CDB7DEB780912A01909135
:1004E0002B018130910581F08130910530F082300F
:1004F000910589F00397B1F01CC081E090E09093E2
:100500002B0180932A0115C082E090E090932B018B
:1005100080932A010EC083E090E090932B0180939A
:100520002A0107C081E090E090932B0180932A017B
:10053000000080912A0190912B018130910549F0B2
:100540008130910590F08230910539F0039749F0A0
:100550000DC081E080931F0109C082E080931F01DC
:1005600005C084E080931F0101C000000000DF91FE
:10057000CF910895CF93DF93CDB7DEB78091260159
:100580009091270181309105A1F08130910518F0FB
:10059000029741F015C082E090E09093270180938C
:1005A00026010EC081E090E0909327018093260100
:1005B00007C082E090E0909327018093260100001D
:1005C00080912601909127018130910561F0813061
:1005D000910518F0029721F00AC01092200107C07F
:1005E0001092200104C088E08093200100000000E8
:1005F000DF91CF910895CF93DF93CDB7DEB7809190
:10060000280190912901009719F0019741F00EC03F
:1006100081E090E0909329018093280107C081E058
:1006200090E0909329018093280100008091280197
:1006300090912901009781F0019709F00EC085E2A1
:1006400090E030911F0120912001322B2091210157
:10065000232BFC01208301C000000000DF91CF911B
:100660000895CF93DF931F92CDB7DEB780E290E07D
:10067000FC0180818095877089838091240190910D
:1006800025018230910509F440C08330910528F49A
:10069000009779F00197A1F068C08430910509F4C2
:1006A0005DC08430910508F441C0059709F445C048
:1006B0005CC081E090E0909325018093240155C0B7
:1006C0008981843039F482E090E090932501809311
:1006D00024014BC08981813039F483E090E090930C
:1006E00025018093240141C08981823039F484E05E
:1006F00090E0909325018093240137C081E090E041
:10070000909325018093240130C08981882339F496
:1007100081E090E0909325018093240126C082E03F
:1007200090E090932501809324011FC085E090E024
:10073000909325018093240118C08981882339F47E
:1007400081E090E090932501809324010EC085E024
:1007500090E0909325018093240107C085E090E00C
:1007600090932501809324010000809124019091B1
:10077000250182309105A9F08330910530F400976E
:1007800009F451C0019741F053C08430910509F438
:1007900040C00497A0F14CC0109221011092220198
:1007A00047C080912301882F90E08E5E9E4FFC0110
:1007B000908180912201981720F080E1809321019F
:1007C00018C080912201282F30E080912301882FCA
:1007D00090E08E5E9E4FFC018081882F90E0880F14
:1007E000991F821793071CF01092210102C01092EA
:1007F0002201809122018F5F8093220119C0809194
:100800002301883090F4809123018F5F809323012E
:100810000CC080912301882351F0809123018150E5
:100820008093230104C0000003C0000001C0000049
:1008300000000F90DF91CF910895CF93DF93CDB754
:10084000DEB760970FB6F894DEBF0FBECDBF81E272
:1008500090E0FC01108282E290E02FEFFC01208307
:1008600084E290E02FEFFC01208385E290E0FC0120
:10087000108219821A821B821C821D821E821F8294
:10088000188619861A861B861C8681E090E0A0E0F7
:10089000B0E08D879E87AF87B88B61E070E080E025
:1008A00090E00E943B020E948B0110922B0110925B
:1008B0002A0110922701109226011092290110920C
:1008C0002801109225011092240189819A81AB811F
:1008D000BC818C329140A105B10530F00E946902C3
:1008E00019821A821B821C828D819E81AF81B885FC
:1008F000883E9340A105B10530F00E94BA021D82E6
:100900001E821F82188689859A85AB85BC850297D1
:10091000A105B10530F00E94310319861A861B86A5
:100920001C860E9431030E94FB02000080911A0184
:100930008823E1F310921A0129813A814B815C816D
:100940008D859E85AF85B889820F931FA41FB51F23
:1009500089839A83AB83BC832D813E814F815885E7
:100960008D859E85AF85B889820F931FA41FB51F03
:100970008D839E83AF83B88729853A854B855C85B7
:100980008D859E85AF85B889820F931FA41FB51FE3
:0E09900089879A87AB87BC8798CFF894FFCFF2
:10099E0000000002000000006201000000000100E3
:0A09AE00000001020304050607081B
:00000001FF
